{
  "contractName": "ColaDayBooking",
  "abi": [
    {
      "inputs": [],
      "stateMutability": "nonpayable",
      "type": "constructor"
    },
    {
      "anonymous": false,
      "inputs": [
        {
          "indexed": true,
          "internalType": "address",
          "name": "previousOwner",
          "type": "address"
        },
        {
          "indexed": true,
          "internalType": "address",
          "name": "newOwner",
          "type": "address"
        }
      ],
      "name": "OwnershipTransferred",
      "type": "event"
    },
    {
      "anonymous": false,
      "inputs": [],
      "name": "Updated",
      "type": "event"
    },
    {
      "inputs": [],
      "name": "owner",
      "outputs": [
        {
          "internalType": "address",
          "name": "",
          "type": "address"
        }
      ],
      "stateMutability": "view",
      "type": "function",
      "constant": true
    },
    {
      "inputs": [],
      "name": "renounceOwnership",
      "outputs": [],
      "stateMutability": "nonpayable",
      "type": "function"
    },
    {
      "inputs": [
        {
          "internalType": "uint256",
          "name": "",
          "type": "uint256"
        },
        {
          "internalType": "uint256",
          "name": "",
          "type": "uint256"
        }
      ],
      "name": "slots",
      "outputs": [
        {
          "internalType": "bool",
          "name": "",
          "type": "bool"
        }
      ],
      "stateMutability": "view",
      "type": "function",
      "constant": true
    },
    {
      "inputs": [
        {
          "internalType": "address",
          "name": "newOwner",
          "type": "address"
        }
      ],
      "name": "transferOwnership",
      "outputs": [],
      "stateMutability": "nonpayable",
      "type": "function"
    },
    {
      "inputs": [],
      "name": "getSlots",
      "outputs": [
        {
          "internalType": "bool[10][20]",
          "name": "",
          "type": "bool[10][20]"
        }
      ],
      "stateMutability": "view",
      "type": "function",
      "constant": true
    },
    {
      "inputs": [
        {
          "internalType": "string",
          "name": "_title",
          "type": "string"
        },
        {
          "internalType": "string",
          "name": "_roomName",
          "type": "string"
        },
        {
          "internalType": "uint8",
          "name": "_from",
          "type": "uint8"
        },
        {
          "internalType": "uint8",
          "name": "_duration",
          "type": "uint8"
        },
        {
          "internalType": "bool",
          "name": "_isEncrypted",
          "type": "bool"
        }
      ],
      "name": "book",
      "outputs": [],
      "stateMutability": "nonpayable",
      "type": "function"
    },
    {
      "inputs": [],
      "name": "getTickets",
      "outputs": [
        {
          "components": [
            {
              "internalType": "uint256",
              "name": "id",
              "type": "uint256"
            },
            {
              "internalType": "string",
              "name": "title",
              "type": "string"
            },
            {
              "internalType": "string",
              "name": "room",
              "type": "string"
            },
            {
              "internalType": "uint8",
              "name": "from",
              "type": "uint8"
            },
            {
              "internalType": "uint8",
              "name": "duration",
              "type": "uint8"
            },
            {
              "internalType": "bool",
              "name": "isEncrypted",
              "type": "bool"
            },
            {
              "internalType": "bool",
              "name": "isActive",
              "type": "bool"
            }
          ],
          "internalType": "struct ColaDayBooking.Ticket[]",
          "name": "",
          "type": "tuple[]"
        }
      ],
      "stateMutability": "view",
      "type": "function",
      "constant": true
    },
    {
      "inputs": [
        {
          "internalType": "uint256",
          "name": "_id",
          "type": "uint256"
        }
      ],
      "name": "deleteTicket",
      "outputs": [],
      "stateMutability": "nonpayable",
      "type": "function"
    }
  ],
  "bytecode": "0x60036103008181526243303160e81b6103205260809081526103408281526221981960e91b6103605260a0526103808281526243303360e81b6103a05260c0526103c08281526210cc0d60ea1b6103e05260e0526104008281526243303560e81b61042052610100526104408281526221981b60e91b61046052610120526104808281526243303760e81b6104a052610140526104c08281526208660760eb1b6104e052610160526105008281526243303960e81b61052052610180526105408281526204331360ec1b610560526101a0526105808281526250303160e81b6105a0526101c0526105c08281526228181960e91b6105e0526101e0526106008281526250303360e81b610620526102005261064082815262140c0d60ea1b61066052610220526106808281526250303560e81b6106a052610240526106c08281526228181b60e91b6106e052610260526107008281526250303760e81b6107205261028052610740828152620a060760eb1b610760526102a0526107808281526250303960e81b6107a0526102c0526108006040526107c09182526205031360ec1b6107e0526102e091909152620001bc9060019060146200038d565b50348015620001ca57600080fd5b50620001d6336200033d565b60005b601460ff82161015620003365760005b620001f7600860126200050c565b60ff168160ff1610156200026d57600160028360ff166014811062000220576200022062000532565b018260ff16600a811062000238576200023862000532565b602091828204019190066101000a81548160ff0219169083151502179055508080620002649062000548565b915050620001e9565b506001601660018360ff16815481106200028b576200028b62000532565b90600052602060002001604051620002a49190620005a6565b908152602001604051809103902060006101000a81548160ff02191690831515021790555080601760018360ff1681548110620002e557620002e562000532565b90600052602060002001604051620002fe9190620005a6565b908152604051908190036020019020805460ff9290921660ff19909216919091179055806200032d8162000548565b915050620001d9565b5062000649565b600080546001600160a01b038381166001600160a01b0319831681178455604051919092169283917f8be0079c531659141344cd1fd0a4f28419497f9722a3daafe3b4186f6b6457e09190a35050565b828054828255906000526020600020908101928215620003df579160200282015b82811115620003df5782518051620003ce918491602090910190620003f1565b5091602001919060010190620003ae565b50620003ed9291506200047c565b5090565b828054620003ff906200056a565b90600052602060002090601f0160209004810192826200042357600085556200046e565b82601f106200043e57805160ff19168380011785556200046e565b828001600101855582156200046e579182015b828111156200046e57825182559160200191906001019062000451565b50620003ed9291506200049d565b80821115620003ed576000620004938282620004b4565b506001016200047c565b5b80821115620003ed57600081556001016200049e565b508054620004c2906200056a565b6000825580601f10620004d3575050565b601f016020900490600052602060002090810190620004f391906200049d565b50565b634e487b7160e01b600052601160045260246000fd5b600060ff821660ff841680821015620005295762000529620004f6565b90039392505050565b634e487b7160e01b600052603260045260246000fd5b600060ff821660ff8103620005615762000561620004f6565b60010192915050565b600181811c908216806200057f57607f821691505b602082108103620005a057634e487b7160e01b600052602260045260246000fd5b50919050565b600080835481600182811c915080831680620005c357607f831692505b60208084108203620005e357634e487b7160e01b86526022600452602486fd5b818015620005fa57600181146200060c576200063b565b60ff198616895284890196506200063b565b60008a81526020902060005b86811015620006335781548b82015290850190830162000618565b505084890196505b509498975050505050505050565b6111de80620006596000396000f3fe608060405234801561001057600080fd5b50600436106100885760003560e01c80638da5cb5b1161005b5780638da5cb5b146100db578063ec823b6d146100f6578063f2fde38b14610119578063fab2c4691461012c57600080fd5b80632b4a8c7e1461008d5780634ed02622146100a25780635a93fb2d146100c0578063715018a6146100d3575b600080fd5b6100a061009b366004610d98565b610141565b005b6100aa610583565b6040516100b79190610e93565b60405180910390f35b6100a06100ce366004610f5b565b61075f565b6100a06109ba565b6000546040516001600160a01b0390911681526020016100b7565b610109610104366004610f74565b610a20565b60405190151581526020016100b7565b6100a0610127366004610f96565b610a5c565b610134610b27565b6040516100b79190610fc6565b836016816040516101529190611024565b9081526040519081900360200190205460ff166101a75760405162461bcd60e51b815260206004820152600e60248201526d149bdbdb481b9bdd08199bdd5b9960921b60448201526064015b60405180910390fd5b838360ff82166008118015906101c15750601260ff831611155b6101fc5760405162461bcd60e51b815260206004820152600c60248201526b496e76616c69642074696d6560a01b604482015260640161019e565b600460ff821611156102435760405162461bcd60e51b815260206004820152601060248201526f24b73b30b634b210323ab930ba34b7b760811b604482015260640161019e565b601261024f8284611056565b60ff1611156102925760405162461bcd60e51b815260206004820152600f60248201526e456e64696e6720746f6f206c61746560881b604482015260640161019e565b60006017886040516102a49190611024565b9081526040519081900360200190205460ff16905060006102c660088961107b565b905060006102d48883611056565b9050815b8160ff168160ff1610156103795760028460ff16601481106102fc576102fc61109e565b018160ff16600a81106103115761031161109e565b602081049091015460ff601f9092166101000a9004166103675760405162461bcd60e51b8152602060048201526011602482015270426f6f6b696e6720636f6e666c6963747360781b604482015260640161019e565b80610371816110b4565b9150506102d8565b50815b8160ff168160ff1610156103e957600060028560ff16601481106103a2576103a261109e565b018260ff16600a81106103b7576103b761109e565b602091828204019190066101000a81548160ff02191690831515021790555080806103e1906110b4565b91505061037c565b50600060186000336001600160a01b03166001600160a01b0316815260200190815260200160002080549050905060186000336001600160a01b03166001600160a01b031681526020019081526020016000206040518060e001604052808381526020018e81526020018d81526020018c60ff1681526020018b60ff1681526020018a151581526020016001151581525090806001815401808255809150506001900390600052602060002090600402016000909190919091506000820151816000015560208201518160010190805190602001906104c9929190610bf9565b50604082015180516104e5916002840191602090910190610bf9565b50606082015160039091018054608084015160a085015160c090950151151563010000000263ff0000001995151562010000029590951663ffff00001960ff9283166101000261ffff1990941692909516919091179190911792909216919091179190911790556040517ff2e795d4a33ae9a0d3282888375b8ae781ea4de1cbf101ac96150aa95ccff0b490600090a1505050505050505050505050565b336000908152601860209081526040808320805482518185028101850190935280835260609492939192909184015b8282101561075657838290600052602060002090600402016040518060e0016040529081600082015481526020016001820180546105ef906110d3565b80601f016020809104026020016040519081016040528092919081815260200182805461061b906110d3565b80156106685780601f1061063d57610100808354040283529160200191610668565b820191906000526020600020905b81548152906001019060200180831161064b57829003601f168201915b50505050508152602001600282018054610681906110d3565b80601f01602080910402602001604051908101604052809291908181526020018280546106ad906110d3565b80156106fa5780601f106106cf576101008083540402835291602001916106fa565b820191906000526020600020905b8154815290600101906020018083116106dd57829003601f168201915b50505091835250506003919091015460ff808216602080850191909152610100830482166040850152620100008304821615156060850152630100000090920416151560809092019190915290825260019290920191016105b2565b50505050905090565b3360009081526018602052604090208054829081106107805761078061109e565b906000526020600020906004020160030160039054906101000a900460ff166107de5760405162461bcd60e51b815260206004820152601060248201526f151a58dad95d081b9bdd08199bdd5b9960821b604482015260640161019e565b3360009081526018602052604081208054839081106107ff576107ff61109e565b60009182526020808320600360049093020191909101805493151563010000000263ff0000001990941693909317909255338152601890915260408120805460179190849081106108525761085261109e565b9060005260206000209060040201600201604051610870919061110d565b9081526040805160209281900383019020543360009081526018909352908220805460ff9092169350600891859081106108ac576108ac61109e565b60009182526020909120600360049092020101546108cd919060ff1661107b565b33600090815260186020526040812080549293509091859081106108f3576108f361109e565b600091825260209091206004909102016003015461091990610100900460ff1683611056565b9050815b8160ff168160ff16101561098a57600160028560ff16601481106109435761094361109e565b018260ff16600a81106109585761095861109e565b602091828204019190066101000a81548160ff0219169083151502179055508080610982906110b4565b91505061091d565b506040517ff2e795d4a33ae9a0d3282888375b8ae781ea4de1cbf101ac96150aa95ccff0b490600090a150505050565b6000546001600160a01b03163314610a145760405162461bcd60e51b815260206004820181905260248201527f4f776e61626c653a2063616c6c6572206973206e6f7420746865206f776e6572604482015260640161019e565b610a1e6000610ba9565b565b60028260148110610a3057600080fd5b0181600a8110610a3f57600080fd5b602081049091015460ff601f9092166101000a9004169150829050565b6000546001600160a01b03163314610ab65760405162461bcd60e51b815260206004820181905260248201527f4f776e61626c653a2063616c6c6572206973206e6f7420746865206f776e6572604482015260640161019e565b6001600160a01b038116610b1b5760405162461bcd60e51b815260206004820152602660248201527f4f776e61626c653a206e6577206f776e657220697320746865207a65726f206160448201526564647265737360d01b606482015260840161019e565b610b2481610ba9565b50565b610b2f610c7d565b604080516102808101909152600260146000835b8282101561075657604080516101408101918290529085840190600a90826000855b825461010083900a900460ff161515815260206001928301818104948501949093039092029101808411610b65579050505050505081526020019060010190610b43565b600080546001600160a01b038381166001600160a01b0319831681178455604051919092169283917f8be0079c531659141344cd1fd0a4f28419497f9722a3daafe3b4186f6b6457e09190a35050565b828054610c05906110d3565b90600052602060002090601f016020900481019282610c275760008555610c6d565b82601f10610c4057805160ff1916838001178555610c6d565b82800160010185558215610c6d579182015b82811115610c6d578251825591602001919060010190610c52565b50610c79929150610cab565b5090565b6040518061028001604052806014905b610c95610cc0565b815260200190600190039081610c8d5790505090565b5b80821115610c795760008155600101610cac565b604051806101400160405280600a906020820280368337509192915050565b634e487b7160e01b600052604160045260246000fd5b600082601f830112610d0657600080fd5b813567ffffffffffffffff80821115610d2157610d21610cdf565b604051601f8301601f19908116603f01168101908282118183101715610d4957610d49610cdf565b81604052838152866020858801011115610d6257600080fd5b836020870160208301376000602085830101528094505050505092915050565b803560ff81168114610d9357600080fd5b919050565b600080600080600060a08688031215610db057600080fd5b853567ffffffffffffffff80821115610dc857600080fd5b610dd489838a01610cf5565b96506020880135915080821115610dea57600080fd5b50610df788828901610cf5565b945050610e0660408701610d82565b9250610e1460608701610d82565b915060808601358015158114610e2957600080fd5b809150509295509295909350565b60005b83811015610e52578181015183820152602001610e3a565b83811115610e61576000848401525b50505050565b60008151808452610e7f816020860160208601610e37565b601f01601f19169290920160200192915050565b60006020808301818452808551808352604092508286019150828160051b87010184880160005b83811015610f4d57603f19898403018552815160e08151855288820151818a870152610ee882870182610e67565b9150508782015185820389870152610f008282610e67565b60608481015160ff908116918901919091526080808601519091169088015260a08085015115159088015260c0938401511515939096019290925250509386019390860190600101610eba565b509098975050505050505050565b600060208284031215610f6d57600080fd5b5035919050565b60008060408385031215610f8757600080fd5b50508035926020909101359150565b600060208284031215610fa857600080fd5b81356001600160a01b0381168114610fbf57600080fd5b9392505050565b611900810181836000805b601481101561101a57825184835b600a8110156110005782511515825260209283019290910190600101610fdf565b505050610140939093019260209290920191600101610fd1565b5050505092915050565b60008251611036818460208701610e37565b9190910192915050565b634e487b7160e01b600052601160045260246000fd5b600060ff821660ff84168060ff0382111561107357611073611040565b019392505050565b600060ff821660ff84168082101561109557611095611040565b90039392505050565b634e487b7160e01b600052603260045260246000fd5b600060ff821660ff81036110ca576110ca611040565b60010192915050565b600181811c908216806110e757607f821691505b60208210810361110757634e487b7160e01b600052602260045260246000fd5b50919050565b600080835481600182811c91508083168061112957607f831692505b6020808410820361114857634e487b7160e01b86526022600452602486fd5b81801561115c576001811461116d5761119a565b60ff1986168952848901965061119a565b60008a81526020902060005b868110156111925781548b820152908501908301611179565b505084890196505b50949897505050505050505056fea2646970667358221220cb72e44df025df244c40896b4c9d5fadc2af073a9f460eb6c099862ee6c8161864736f6c634300080e0033",
  "immutableReferences": {},
  "source": "// SPDX-License-Identifier: MIT\npragma solidity >=0.4.22 <0.9.0;\nimport \"@openzeppelin/contracts/access/Ownable.sol\";\n\n/**\n * @title ColaDayBooking\n * @dev A contract for booking rooms on Cola Day.\n * with ETH\n */\ncontract ColaDayBooking is Ownable {\n    string[] private ROOMS = [\n        \"C01\",\n        \"C02\",\n        \"C03\",\n        \"C04\",\n        \"C05\",\n        \"C06\",\n        \"C07\",\n        \"C08\",\n        \"C09\",\n        \"C10\",\n        \"P01\",\n        \"P02\",\n        \"P03\",\n        \"P04\",\n        \"P05\",\n        \"P06\",\n        \"P07\",\n        \"P08\",\n        \"P09\",\n        \"P10\"\n    ];\n    uint8 private constant NUM_OF_ROOMS = 20;\n    uint8 private constant OPEN_AT = 8;\n    uint8 private constant CLOSE_AT = 18;\n    uint8 private constant MAX_DURATION = 4;\n    uint8 private constant HOURS_DAILY = CLOSE_AT - OPEN_AT;\n\n    // slots table\n    // row: room index, col: time index => true: available or fale: filled\n    bool[HOURS_DAILY][NUM_OF_ROOMS] public slots;\n\n    // mapping of rooms, if invalid room name, returns false\n    mapping(string => bool) isValidRoom;\n\n    // mapping of room index; room name => room index\n    mapping(string => uint8) roomToSlotsRow;\n\n    // booking tichet\n    struct Ticket {\n        uint256 id;\n        string title;\n        string room;\n        uint8 from;\n        uint8 duration;\n        bool isEncrypted;\n        bool isActive;\n    }\n\n    // mapping of each users' booking tickets\n    mapping(address => Ticket[]) userToTickets;\n\n    // event - triggered when new ticket created or ticket removed\n    event Updated();\n\n    /**\n     * @dev Constructor - initialise slots\n     */\n    constructor() {\n        for (uint8 row = 0; row < NUM_OF_ROOMS; row++) {\n            for (uint8 col = 0; col < HOURS_DAILY; col++) {\n                slots[row][col] = true;\n            }\n            isValidRoom[ROOMS[row]] = true;\n            roomToSlotsRow[ROOMS[row]] = row;\n        }\n    }\n\n    /**\n     * @dev Get slots table\n     * @return bool[][] If the slots are available or not\n     */\n    function getSlots()\n        external\n        view\n        returns (bool[HOURS_DAILY][NUM_OF_ROOMS] memory)\n    {\n        return slots;\n    }\n\n    /**\n     * @dev Checks if the room name is valid\n     * @param _roomName The room name to check\n     */\n    modifier validRoom(string memory _roomName) {\n        require(isValidRoom[_roomName], \"Room not found\");\n        _;\n    }\n\n    /**\n     * @dev Checks if time range (from & duration) is valid\n     * @param _from Time the event starts at\n     * @param _duration Duration of event\n     */\n    modifier validTime(uint8 _from, uint8 _duration) {\n        require(OPEN_AT <= _from && _from <= CLOSE_AT, \"Invalid time\");\n        require(\n            0 <= _duration && _duration <= MAX_DURATION,\n            \"Invalid duration\"\n        );\n        require(_from + _duration <= CLOSE_AT, \"Ending too late\");\n        _;\n    }\n\n    /**\n     * @dev Save booking ticket\n     * @param _title The event title\n     * @param _roomName Room name\n     * @param _from Time the event starts at\n     * @param _duration Duration of event\n     * @param _isEncrypted If the ticket title is encrypted with user's public key\n     */\n    function book(\n        string memory _title,\n        string memory _roomName,\n        uint8 _from,\n        uint8 _duration,\n        bool _isEncrypted\n    ) external validRoom(_roomName) validTime(_from, _duration) {\n        uint8 row = roomToSlotsRow[_roomName];\n        uint8 fromCol = _from - OPEN_AT;\n        uint8 toCol = fromCol + _duration;\n\n        // make sure if there's no event conflict\n        for (uint8 col = fromCol; col < toCol; col++) {\n            require(slots[row][col], \"Booking conflicts\");\n        }\n\n        // update slots availability\n        for (uint8 col = fromCol; col < toCol; col++) {\n            slots[row][col] = false;\n        }\n\n        // create a new ticket\n        uint256 id = userToTickets[msg.sender].length;\n        userToTickets[msg.sender].push(\n            Ticket(id, _title, _roomName, _from, _duration, _isEncrypted, true)\n        );\n\n        // emit event\n        emit Updated();\n    }\n\n    /**\n     * @dev Get all user's tickets\n     * @return Ticket[] array of tickets\n     */\n    function getTickets() external view returns (Ticket[] memory) {\n        return userToTickets[msg.sender];\n    }\n\n    /**\n     * @dev Deactivate a ticket by id - only the ticket owner can deactivate\n     * @param _id The ticket id to remove\n     */\n    function deleteTicket(uint256 _id) external {\n        // if the user doesn't own a ticket with the id, return error\n        require(userToTickets[msg.sender][_id].isActive, \"Ticket not found\");\n\n        // deactivate the ticket\n        userToTickets[msg.sender][_id].isActive = false;\n\n        // update slots availability\n        uint8 row = roomToSlotsRow[userToTickets[msg.sender][_id].room];\n        uint8 fromCol = userToTickets[msg.sender][_id].from - OPEN_AT;\n        uint8 toCol = fromCol + userToTickets[msg.sender][_id].duration;\n        for (uint8 col = fromCol; col < toCol; col++) {\n            slots[row][col] = true;\n        }\n\n        // emit event\n        emit Updated();\n    }\n}\n",
  "sourcePath": "/Users/mitsuki/Dev/WEB3/ColaDayBooking/truffle/contracts/ColaDayBooking.sol",
  "compiler": {
    "name": "solc",
    "version": "0.8.14+commit.80d49f37.Emscripten.clang"
  },
  "schemaVersion": "3.4.7",
  "updatedAt": "2022-06-30T09:37:15.122Z",
  "networkType": "ethereum",
  "devdoc": {
    "details": "A contract for booking rooms on Cola Day. with ETH",
    "kind": "dev",
    "methods": {
      "book(string,string,uint8,uint8,bool)": {
        "details": "Save booking ticket",
        "params": {
          "_duration": "Duration of event",
          "_from": "Time the event starts at",
          "_isEncrypted": "If the ticket title is encrypted with user's public key",
          "_roomName": "Room name",
          "_title": "The event title"
        }
      },
      "constructor": {
        "details": "Constructor - initialise slots"
      },
      "deleteTicket(uint256)": {
        "details": "Deactivate a ticket by id - only the ticket owner can deactivate",
        "params": {
          "_id": "The ticket id to remove"
        }
      },
      "getSlots()": {
        "details": "Get slots table",
        "returns": {
          "_0": "bool[][] If the slots are available or not"
        }
      },
      "getTickets()": {
        "details": "Get all user's tickets",
        "returns": {
          "_0": "Ticket[] array of tickets"
        }
      },
      "owner()": {
        "details": "Returns the address of the current owner."
      },
      "renounceOwnership()": {
        "details": "Leaves the contract without owner. It will not be possible to call `onlyOwner` functions anymore. Can only be called by the current owner. NOTE: Renouncing ownership will leave the contract without an owner, thereby removing any functionality that is only available to the owner."
      },
      "transferOwnership(address)": {
        "details": "Transfers ownership of the contract to a new account (`newOwner`). Can only be called by the current owner."
      }
    },
    "title": "ColaDayBooking",
    "version": 1
  },
  "userdoc": {
    "kind": "user",
    "methods": {},
    "version": 1
  }
}