{
  "contractName": "HelloWorld",
  "abi": [
    {
      "inputs": [],
      "stateMutability": "nonpayable",
      "type": "constructor"
    },
    {
      "anonymous": false,
      "inputs": [
        {
          "indexed": true,
          "internalType": "address",
          "name": "previousOwner",
          "type": "address"
        },
        {
          "indexed": true,
          "internalType": "address",
          "name": "newOwner",
          "type": "address"
        }
      ],
      "name": "OwnershipTransferred",
      "type": "event"
    },
    {
      "anonymous": false,
      "inputs": [],
      "name": "Updated",
      "type": "event"
    },
    {
      "inputs": [],
      "name": "owner",
      "outputs": [
        {
          "internalType": "address",
          "name": "",
          "type": "address"
        }
      ],
      "stateMutability": "view",
      "type": "function",
      "constant": true
    },
    {
      "inputs": [],
      "name": "renounceOwnership",
      "outputs": [],
      "stateMutability": "nonpayable",
      "type": "function"
    },
    {
      "inputs": [
        {
          "internalType": "uint256",
          "name": "",
          "type": "uint256"
        },
        {
          "internalType": "uint256",
          "name": "",
          "type": "uint256"
        }
      ],
      "name": "slots",
      "outputs": [
        {
          "internalType": "bool",
          "name": "",
          "type": "bool"
        }
      ],
      "stateMutability": "view",
      "type": "function",
      "constant": true
    },
    {
      "inputs": [
        {
          "internalType": "address",
          "name": "newOwner",
          "type": "address"
        }
      ],
      "name": "transferOwnership",
      "outputs": [],
      "stateMutability": "nonpayable",
      "type": "function"
    },
    {
      "inputs": [],
      "name": "getSlots",
      "outputs": [
        {
          "internalType": "bool[10][20]",
          "name": "",
          "type": "bool[10][20]"
        }
      ],
      "stateMutability": "view",
      "type": "function",
      "constant": true
    },
    {
      "inputs": [
        {
          "internalType": "string",
          "name": "title",
          "type": "string"
        },
        {
          "internalType": "string",
          "name": "room",
          "type": "string"
        },
        {
          "internalType": "uint8",
          "name": "from",
          "type": "uint8"
        },
        {
          "internalType": "uint8",
          "name": "duration",
          "type": "uint8"
        }
      ],
      "name": "book",
      "outputs": [],
      "stateMutability": "nonpayable",
      "type": "function"
    },
    {
      "inputs": [],
      "name": "getTickets",
      "outputs": [
        {
          "components": [
            {
              "internalType": "uint256",
              "name": "id",
              "type": "uint256"
            },
            {
              "internalType": "string",
              "name": "title",
              "type": "string"
            },
            {
              "internalType": "string",
              "name": "room",
              "type": "string"
            },
            {
              "internalType": "uint8",
              "name": "from",
              "type": "uint8"
            },
            {
              "internalType": "uint8",
              "name": "duration",
              "type": "uint8"
            },
            {
              "internalType": "bool",
              "name": "isActive",
              "type": "bool"
            }
          ],
          "internalType": "struct HelloWorld.Ticket[]",
          "name": "",
          "type": "tuple[]"
        }
      ],
      "stateMutability": "view",
      "type": "function",
      "constant": true
    },
    {
      "inputs": [
        {
          "internalType": "uint256",
          "name": "id",
          "type": "uint256"
        }
      ],
      "name": "removeTicket",
      "outputs": [],
      "stateMutability": "nonpayable",
      "type": "function"
    }
  ],
  "bytecode": "0x60036103008181526243303160e81b6103205260809081526103408281526221981960e91b6103605260a0526103808281526243303360e81b6103a05260c0526103c08281526210cc0d60ea1b6103e05260e0526104008281526243303560e81b61042052610100526104408281526221981b60e91b61046052610120526104808281526243303760e81b6104a052610140526104c08281526208660760eb1b6104e052610160526105008281526243303960e81b61052052610180526105408281526204331360ec1b610560526101a0526105808281526250303160e81b6105a0526101c0526105c08281526228181960e91b6105e0526101e0526106008281526250303360e81b610620526102005261064082815262140c0d60ea1b61066052610220526106808281526250303560e81b6106a052610240526106c08281526228181b60e91b6106e052610260526107008281526250303760e81b6107205261028052610740828152620a060760eb1b610760526102a0526107808281526250303960e81b6107a0526102c0526108006040526107c09182526205031360ec1b6107e0526102e091909152620001bc9060019060146200038d565b50348015620001ca57600080fd5b50620001d6336200033d565b60005b601460ff82161015620003365760005b620001f7600860126200050c565b60ff168160ff1610156200026d57600160028360ff166014811062000220576200022062000532565b018260ff16600a811062000238576200023862000532565b602091828204019190066101000a81548160ff0219169083151502179055508080620002649062000548565b915050620001e9565b506001601660018360ff16815481106200028b576200028b62000532565b90600052602060002001604051620002a49190620005a6565b908152602001604051809103902060006101000a81548160ff02191690831515021790555080601760018360ff1681548110620002e557620002e562000532565b90600052602060002001604051620002fe9190620005a6565b908152604051908190036020019020805460ff9290921660ff19909216919091179055806200032d8162000548565b915050620001d9565b5062000649565b600080546001600160a01b038381166001600160a01b0319831681178455604051919092169283917f8be0079c531659141344cd1fd0a4f28419497f9722a3daafe3b4186f6b6457e09190a35050565b828054828255906000526020600020908101928215620003df579160200282015b82811115620003df5782518051620003ce918491602090910190620003f1565b5091602001919060010190620003ae565b50620003ed9291506200047c565b5090565b828054620003ff906200056a565b90600052602060002090601f0160209004810192826200042357600085556200046e565b82601f106200043e57805160ff19168380011785556200046e565b828001600101855582156200046e579182015b828111156200046e57825182559160200191906001019062000451565b50620003ed9291506200049d565b80821115620003ed576000620004938282620004b4565b506001016200047c565b5b80821115620003ed57600081556001016200049e565b508054620004c2906200056a565b6000825580601f10620004d3575050565b601f016020900490600052602060002090810190620004f391906200049d565b50565b634e487b7160e01b600052601160045260246000fd5b600060ff821660ff841680821015620005295762000529620004f6565b90039392505050565b634e487b7160e01b600052603260045260246000fd5b600060ff821660ff8103620005615762000561620004f6565b60010192915050565b600181811c908216806200057f57607f821691505b602082108103620005a057634e487b7160e01b600052602260045260246000fd5b50919050565b600080835481600182811c915080831680620005c357607f831692505b60208084108203620005e357634e487b7160e01b86526022600452602486fd5b818015620005fa57600181146200060c576200063b565b60ff198616895284890196506200063b565b60008a81526020902060005b86811015620006335781548b82015290850190830162000618565b505084890196505b509498975050505050505050565b61117e80620006596000396000f3fe608060405234801561001057600080fd5b50600436106100885760003560e01c8063a8dd0a821161005b578063a8dd0a82146100e3578063ec823b6d146100f6578063f2fde38b14610119578063fab2c4691461012c57600080fd5b80634ed026221461008d578063715018a6146100ab578063882fd8fa146100b55780638da5cb5b146100c8575b600080fd5b610095610141565b6040516100a29190610d01565b60405180910390f35b6100b361030d565b005b6100b36100c3366004610e76565b610378565b6000546040516001600160a01b0390911681526020016100a2565b6100b36100f1366004610efb565b61078d565b610109610104366004610f14565b6109e6565b60405190151581526020016100a2565b6100b3610127366004610f36565b610a22565b610134610aed565b6040516100a29190610f66565b336000908152601860209081526040808320805482518185028101850190935280835260609492939192909184015b8282101561030457838290600052602060002090600402016040518060c0016040529081600082015481526020016001820180546101ad90610fc4565b80601f01602080910402602001604051908101604052809291908181526020018280546101d990610fc4565b80156102265780601f106101fb57610100808354040283529160200191610226565b820191906000526020600020905b81548152906001019060200180831161020957829003601f168201915b5050505050815260200160028201805461023f90610fc4565b80601f016020809104026020016040519081016040528092919081815260200182805461026b90610fc4565b80156102b85780601f1061028d576101008083540402835291602001916102b8565b820191906000526020600020905b81548152906001019060200180831161029b57829003601f168201915b50505091835250506003919091015460ff808216602080850191909152610100830482166040850152620100009092041615156060909201919091529082526001929092019101610170565b50505050905090565b6000546001600160a01b0316331461036c5760405162461bcd60e51b815260206004820181905260248201527f4f776e61626c653a2063616c6c6572206973206e6f7420746865206f776e657260448201526064015b60405180910390fd5b6103766000610b6f565b565b826016816040516103899190610ffe565b9081526040519081900360200190205460ff166103d95760405162461bcd60e51b815260206004820152600e60248201526d149bdbdb481b9bdd08199bdd5b9960921b6044820152606401610363565b828260ff82166008118015906103f35750601260ff831611155b61042e5760405162461bcd60e51b815260206004820152600c60248201526b496e76616c69642074696d6560a01b6044820152606401610363565b600460ff821611156104765760405162461bcd60e51b81526020600482015260116024820152704475726174696f6e20746f6f206c6f6e6760781b6044820152606401610363565b60126104828284611030565b60ff1611156104c55760405162461bcd60e51b815260206004820152600f60248201526e456e64696e6720746f6f206c61746560881b6044820152606401610363565b60006017876040516104d79190610ffe565b9081526040519081900360200190205460ff16905060006104f9600888611055565b905060006105078783611030565b9050815b8160ff168160ff1610156105ac5760028460ff166014811061052f5761052f611078565b018160ff16600a811061054457610544611078565b602081049091015460ff601f9092166101000a90041661059a5760405162461bcd60e51b8152602060048201526011602482015270426f6f6b696e6720636f6e666c6963747360781b6044820152606401610363565b806105a48161108e565b91505061050b565b50815b8160ff168160ff16101561061c57600060028560ff16601481106105d5576105d5611078565b018260ff16600a81106105ea576105ea611078565b602091828204019190066101000a81548160ff02191690831515021790555080806106149061108e565b9150506105af565b50600060186000336001600160a01b03166001600160a01b0316815260200190815260200160002080549050905060186000336001600160a01b03166001600160a01b031681526020019081526020016000206040518060c001604052808381526020018d81526020018c81526020018b60ff1681526020018a60ff1681526020016001151581525090806001815401808255809150506001900390600052602060002090600402016000909190919091506000820151816000015560208201518160010190805190602001906106f4929190610bbf565b5060408201518051610710916002840191602090910190610bbf565b50606082015160039091018054608084015160a0909401511515620100000262ff00001960ff9586166101000261ffff19909316959094169490941717919091169190911790556040517ff2e795d4a33ae9a0d3282888375b8ae781ea4de1cbf101ac96150aa95ccff0b490600090a15050505050505050505050565b3360009081526018602052604090208054829081106107ae576107ae611078565b906000526020600020906004020160030160029054906101000a900460ff1661080c5760405162461bcd60e51b815260206004820152601060248201526f151a58dad95d081b9bdd08199bdd5b9960821b6044820152606401610363565b33600090815260186020526040812080548390811061082d5761082d611078565b600091825260208083206003600490930201919091018054931515620100000262ff000019909416939093179092553381526018909152604081208054601791908490811061087e5761087e611078565b906000526020600020906004020160020160405161089c91906110ad565b9081526040805160209281900383019020543360009081526018909352908220805460ff9092169350600891859081106108d8576108d8611078565b60009182526020909120600360049092020101546108f9919060ff16611055565b336000908152601860205260408120805492935090918590811061091f5761091f611078565b600091825260209091206004909102016003015461094590610100900460ff1683611030565b9050815b8160ff168160ff1610156109b657600160028560ff166014811061096f5761096f611078565b018260ff16600a811061098457610984611078565b602091828204019190066101000a81548160ff02191690831515021790555080806109ae9061108e565b915050610949565b506040517ff2e795d4a33ae9a0d3282888375b8ae781ea4de1cbf101ac96150aa95ccff0b490600090a150505050565b600282601481106109f657600080fd5b0181600a8110610a0557600080fd5b602081049091015460ff601f9092166101000a9004169150829050565b6000546001600160a01b03163314610a7c5760405162461bcd60e51b815260206004820181905260248201527f4f776e61626c653a2063616c6c6572206973206e6f7420746865206f776e65726044820152606401610363565b6001600160a01b038116610ae15760405162461bcd60e51b815260206004820152602660248201527f4f776e61626c653a206e6577206f776e657220697320746865207a65726f206160448201526564647265737360d01b6064820152608401610363565b610aea81610b6f565b50565b610af5610c43565b604080516102808101909152600260146000835b8282101561030457604080516101408101918290529085840190600a90826000855b825461010083900a900460ff161515815260206001928301818104948501949093039092029101808411610b2b579050505050505081526020019060010190610b09565b600080546001600160a01b038381166001600160a01b0319831681178455604051919092169283917f8be0079c531659141344cd1fd0a4f28419497f9722a3daafe3b4186f6b6457e09190a35050565b828054610bcb90610fc4565b90600052602060002090601f016020900481019282610bed5760008555610c33565b82601f10610c0657805160ff1916838001178555610c33565b82800160010185558215610c33579182015b82811115610c33578251825591602001919060010190610c18565b50610c3f929150610c71565b5090565b6040518061028001604052806014905b610c5b610c86565b815260200190600190039081610c535790505090565b5b80821115610c3f5760008155600101610c72565b604051806101400160405280600a906020820280368337509192915050565b60005b83811015610cc0578181015183820152602001610ca8565b83811115610ccf576000848401525b50505050565b60008151808452610ced816020860160208601610ca5565b601f01601f19169290920160200192915050565b60006020808301818452808551808352604092508286019150828160051b87010184880160005b83811015610daf57603f19898403018552815160c08151855288820151818a870152610d5682870182610cd5565b9150508782015185820389870152610d6e8282610cd5565b60608481015160ff908116918901919091526080808601519091169088015260a0938401511515939096019290925250509386019390860190600101610d28565b509098975050505050505050565b634e487b7160e01b600052604160045260246000fd5b600082601f830112610de457600080fd5b813567ffffffffffffffff80821115610dff57610dff610dbd565b604051601f8301601f19908116603f01168101908282118183101715610e2757610e27610dbd565b81604052838152866020858801011115610e4057600080fd5b836020870160208301376000602085830101528094505050505092915050565b803560ff81168114610e7157600080fd5b919050565b60008060008060808587031215610e8c57600080fd5b843567ffffffffffffffff80821115610ea457600080fd5b610eb088838901610dd3565b95506020870135915080821115610ec657600080fd5b50610ed387828801610dd3565b935050610ee260408601610e60565b9150610ef060608601610e60565b905092959194509250565b600060208284031215610f0d57600080fd5b5035919050565b60008060408385031215610f2757600080fd5b50508035926020909101359150565b600060208284031215610f4857600080fd5b81356001600160a01b0381168114610f5f57600080fd5b9392505050565b611900810181836000805b6014811015610fba57825184835b600a811015610fa05782511515825260209283019290910190600101610f7f565b505050610140939093019260209290920191600101610f71565b5050505092915050565b600181811c90821680610fd857607f821691505b602082108103610ff857634e487b7160e01b600052602260045260246000fd5b50919050565b60008251611010818460208701610ca5565b9190910192915050565b634e487b7160e01b600052601160045260246000fd5b600060ff821660ff84168060ff0382111561104d5761104d61101a565b019392505050565b600060ff821660ff84168082101561106f5761106f61101a565b90039392505050565b634e487b7160e01b600052603260045260246000fd5b600060ff821660ff81036110a4576110a461101a565b60010192915050565b600080835481600182811c9150808316806110c957607f831692505b602080841082036110e857634e487b7160e01b86526022600452602486fd5b8180156110fc576001811461110d5761113a565b60ff1986168952848901965061113a565b60008a81526020902060005b868110156111325781548b820152908501908301611119565b505084890196505b50949897505050505050505056fea26469706673582212205e28c635a84e54dd580cb32c6accd09e8dab3398bfb12db5c856e8626876b4be64736f6c634300080e0033",
  "immutableReferences": {},
  "source": "// SPDX-License-Identifier: MIT\npragma solidity >=0.4.22 <0.9.0;\nimport \"@openzeppelin/contracts/access/Ownable.sol\";\n\ncontract HelloWorld is Ownable {\n    string[] private rooms = [\n        \"C01\",\n        \"C02\",\n        \"C03\",\n        \"C04\",\n        \"C05\",\n        \"C06\",\n        \"C07\",\n        \"C08\",\n        \"C09\",\n        \"C10\",\n        \"P01\",\n        \"P02\",\n        \"P03\",\n        \"P04\",\n        \"P05\",\n        \"P06\",\n        \"P07\",\n        \"P08\",\n        \"P09\",\n        \"P10\"\n    ];\n\n    uint8 private constant NUM_OF_ROOMS = 20;\n    uint8 private constant OPEN_AT = 8;\n    uint8 private constant CLOSE_AT = 18;\n    uint8 private constant MAX_DURATION = 4;\n    uint8 private constant HOURS_DAILY = CLOSE_AT - OPEN_AT;\n\n    bool[HOURS_DAILY][NUM_OF_ROOMS] public slots;\n    mapping(string => bool) isValidRoom;\n    mapping(string => uint8) roomToSlotsRow;\n\n    struct Ticket {\n        uint256 id;\n        string title;\n        string room;\n        uint8 from;\n        uint8 duration;\n        bool isActive;\n    }\n    // Ticket[] public tickets;\n    // mapping(address => uint256[]) userToTicketIds;\n    mapping(address => Ticket[]) userToTickets;\n\n    event Updated();\n\n    constructor() {\n        // initialise slots - true: available, fale: filled\n        for (uint8 row = 0; row < NUM_OF_ROOMS; row++) {\n            for (uint8 col = 0; col < HOURS_DAILY; col++) {\n                slots[row][col] = true;\n            }\n            isValidRoom[rooms[row]] = true;\n            roomToSlotsRow[rooms[row]] = row;\n        }\n    }\n\n    function getSlots()\n        external\n        view\n        returns (bool[HOURS_DAILY][NUM_OF_ROOMS] memory)\n    {\n        return slots;\n    }\n\n    modifier validRoom(string memory room) {\n        require(isValidRoom[room], \"Room not found\");\n        _;\n    }\n\n    modifier validTime(uint8 from, uint8 duration) {\n        require(OPEN_AT <= from && from <= CLOSE_AT, \"Invalid time\");\n        require(duration <= MAX_DURATION, \"Duration too long\");\n        require(from + duration <= CLOSE_AT, \"Ending too late\");\n        _;\n    }\n\n    function book(\n        string memory title,\n        string memory room,\n        uint8 from,\n        uint8 duration\n    ) external validRoom(room) validTime(from, duration) {\n        uint8 row = roomToSlotsRow[room];\n        uint8 fromCol = from - OPEN_AT;\n        uint8 toCol = fromCol + duration;\n\n        // make sure if there's no event conflict\n        for (uint8 col = fromCol; col < toCol; col++) {\n            require(slots[row][col], \"Booking conflicts\");\n        }\n\n        // update slots availability\n        for (uint8 col = fromCol; col < toCol; col++) {\n            slots[row][col] = false;\n        }\n\n        // create a new ticket\n        uint256 id = userToTickets[msg.sender].length;\n        userToTickets[msg.sender].push(\n            Ticket(id, title, room, from, duration, true)\n        );\n\n        // emit event\n        emit Updated();\n    }\n\n    function getTickets() external view returns (Ticket[] memory) {\n        return userToTickets[msg.sender];\n    }\n\n    function removeTicket(uint256 id) external {\n        require(userToTickets[msg.sender][id].isActive, \"Ticket not found\");\n\n        userToTickets[msg.sender][id].isActive = false;\n        uint8 row = roomToSlotsRow[userToTickets[msg.sender][id].room];\n        uint8 fromCol = userToTickets[msg.sender][id].from - OPEN_AT;\n        uint8 toCol = fromCol + userToTickets[msg.sender][id].duration;\n\n        // update slots availability\n        for (uint8 col = fromCol; col < toCol; col++) {\n            slots[row][col] = true;\n        }\n\n        emit Updated();\n    }\n}\n",
  "sourcePath": "/Users/mitsuki/Dev/WEB3/playground2/truffle/contracts/HelloWorld.sol",
  "compiler": {
    "name": "solc",
    "version": "0.8.14+commit.80d49f37.Emscripten.clang"
  },
  "schemaVersion": "3.4.7",
  "updatedAt": "2022-06-24T03:18:27.462Z",
  "networkType": "ethereum",
  "devdoc": {
    "kind": "dev",
    "methods": {
      "owner()": {
        "details": "Returns the address of the current owner."
      },
      "renounceOwnership()": {
        "details": "Leaves the contract without owner. It will not be possible to call `onlyOwner` functions anymore. Can only be called by the current owner. NOTE: Renouncing ownership will leave the contract without an owner, thereby removing any functionality that is only available to the owner."
      },
      "transferOwnership(address)": {
        "details": "Transfers ownership of the contract to a new account (`newOwner`). Can only be called by the current owner."
      }
    },
    "version": 1
  },
  "userdoc": {
    "kind": "user",
    "methods": {},
    "version": 1
  }
}