{
  "contractName": "HelloWorld",
  "abi": [
    {
      "inputs": [],
      "stateMutability": "nonpayable",
      "type": "constructor"
    },
    {
      "anonymous": false,
      "inputs": [
        {
          "indexed": true,
          "internalType": "address",
          "name": "previousOwner",
          "type": "address"
        },
        {
          "indexed": true,
          "internalType": "address",
          "name": "newOwner",
          "type": "address"
        }
      ],
      "name": "OwnershipTransferred",
      "type": "event"
    },
    {
      "anonymous": false,
      "inputs": [],
      "name": "Updated",
      "type": "event"
    },
    {
      "inputs": [],
      "name": "owner",
      "outputs": [
        {
          "internalType": "address",
          "name": "",
          "type": "address"
        }
      ],
      "stateMutability": "view",
      "type": "function",
      "constant": true
    },
    {
      "inputs": [],
      "name": "renounceOwnership",
      "outputs": [],
      "stateMutability": "nonpayable",
      "type": "function"
    },
    {
      "inputs": [
        {
          "internalType": "uint256",
          "name": "",
          "type": "uint256"
        },
        {
          "internalType": "uint256",
          "name": "",
          "type": "uint256"
        }
      ],
      "name": "slots",
      "outputs": [
        {
          "internalType": "bool",
          "name": "",
          "type": "bool"
        }
      ],
      "stateMutability": "view",
      "type": "function",
      "constant": true
    },
    {
      "inputs": [
        {
          "internalType": "address",
          "name": "newOwner",
          "type": "address"
        }
      ],
      "name": "transferOwnership",
      "outputs": [],
      "stateMutability": "nonpayable",
      "type": "function"
    },
    {
      "inputs": [],
      "name": "getSlots",
      "outputs": [
        {
          "internalType": "bool[10][20]",
          "name": "",
          "type": "bool[10][20]"
        }
      ],
      "stateMutability": "view",
      "type": "function",
      "constant": true
    },
    {
      "inputs": [
        {
          "internalType": "string",
          "name": "title",
          "type": "string"
        },
        {
          "internalType": "string",
          "name": "room",
          "type": "string"
        },
        {
          "internalType": "uint8",
          "name": "from",
          "type": "uint8"
        },
        {
          "internalType": "uint8",
          "name": "duration",
          "type": "uint8"
        },
        {
          "internalType": "bool",
          "name": "isEncrypted",
          "type": "bool"
        }
      ],
      "name": "book",
      "outputs": [],
      "stateMutability": "nonpayable",
      "type": "function"
    },
    {
      "inputs": [],
      "name": "getTickets",
      "outputs": [
        {
          "components": [
            {
              "internalType": "uint256",
              "name": "id",
              "type": "uint256"
            },
            {
              "internalType": "string",
              "name": "title",
              "type": "string"
            },
            {
              "internalType": "string",
              "name": "room",
              "type": "string"
            },
            {
              "internalType": "uint8",
              "name": "from",
              "type": "uint8"
            },
            {
              "internalType": "uint8",
              "name": "duration",
              "type": "uint8"
            },
            {
              "internalType": "bool",
              "name": "isEncrypted",
              "type": "bool"
            },
            {
              "internalType": "bool",
              "name": "isActive",
              "type": "bool"
            }
          ],
          "internalType": "struct HelloWorld.Ticket[]",
          "name": "",
          "type": "tuple[]"
        }
      ],
      "stateMutability": "view",
      "type": "function",
      "constant": true
    },
    {
      "inputs": [
        {
          "internalType": "uint256",
          "name": "id",
          "type": "uint256"
        }
      ],
      "name": "removeTicket",
      "outputs": [],
      "stateMutability": "nonpayable",
      "type": "function"
    }
  ],
  "bytecode": "0x60036103008181526243303160e81b6103205260809081526103408281526221981960e91b6103605260a0526103808281526243303360e81b6103a05260c0526103c08281526210cc0d60ea1b6103e05260e0526104008281526243303560e81b61042052610100526104408281526221981b60e91b61046052610120526104808281526243303760e81b6104a052610140526104c08281526208660760eb1b6104e052610160526105008281526243303960e81b61052052610180526105408281526204331360ec1b610560526101a0526105808281526250303160e81b6105a0526101c0526105c08281526228181960e91b6105e0526101e0526106008281526250303360e81b610620526102005261064082815262140c0d60ea1b61066052610220526106808281526250303560e81b6106a052610240526106c08281526228181b60e91b6106e052610260526107008281526250303760e81b6107205261028052610740828152620a060760eb1b610760526102a0526107808281526250303960e81b6107a0526102c0526108006040526107c09182526205031360ec1b6107e0526102e091909152620001bc9060019060146200038d565b50348015620001ca57600080fd5b50620001d6336200033d565b60005b601460ff82161015620003365760005b620001f7600860126200050c565b60ff168160ff1610156200026d57600160028360ff166014811062000220576200022062000532565b018260ff16600a811062000238576200023862000532565b602091828204019190066101000a81548160ff0219169083151502179055508080620002649062000548565b915050620001e9565b506001601660018360ff16815481106200028b576200028b62000532565b90600052602060002001604051620002a49190620005a6565b908152602001604051809103902060006101000a81548160ff02191690831515021790555080601760018360ff1681548110620002e557620002e562000532565b90600052602060002001604051620002fe9190620005a6565b908152604051908190036020019020805460ff9290921660ff19909216919091179055806200032d8162000548565b915050620001d9565b5062000649565b600080546001600160a01b038381166001600160a01b0319831681178455604051919092169283917f8be0079c531659141344cd1fd0a4f28419497f9722a3daafe3b4186f6b6457e09190a35050565b828054828255906000526020600020908101928215620003df579160200282015b82811115620003df5782518051620003ce918491602090910190620003f1565b5091602001919060010190620003ae565b50620003ed9291506200047c565b5090565b828054620003ff906200056a565b90600052602060002090601f0160209004810192826200042357600085556200046e565b82601f106200043e57805160ff19168380011785556200046e565b828001600101855582156200046e579182015b828111156200046e57825182559160200191906001019062000451565b50620003ed9291506200049d565b80821115620003ed576000620004938282620004b4565b506001016200047c565b5b80821115620003ed57600081556001016200049e565b508054620004c2906200056a565b6000825580601f10620004d3575050565b601f016020900490600052602060002090810190620004f391906200049d565b50565b634e487b7160e01b600052601160045260246000fd5b600060ff821660ff841680821015620005295762000529620004f6565b90039392505050565b634e487b7160e01b600052603260045260246000fd5b600060ff821660ff8103620005615762000561620004f6565b60010192915050565b600181811c908216806200057f57607f821691505b602082108103620005a057634e487b7160e01b600052602260045260246000fd5b50919050565b600080835481600182811c915080831680620005c357607f831692505b60208084108203620005e357634e487b7160e01b86526022600452602486fd5b818015620005fa57600181146200060c576200063b565b60ff198616895284890196506200063b565b60008a81526020902060005b86811015620006335781548b82015290850190830162000618565b505084890196505b509498975050505050505050565b6111df80620006596000396000f3fe608060405234801561001057600080fd5b50600436106100885760003560e01c8063a8dd0a821161005b578063a8dd0a82146100e3578063ec823b6d146100f6578063f2fde38b14610119578063fab2c4691461012c57600080fd5b80632b4a8c7e1461008d5780634ed02622146100a2578063715018a6146100c05780638da5cb5b146100c8575b600080fd5b6100a061009b366004610d99565b610141565b005b6100aa610584565b6040516100b79190610e94565b60405180910390f35b6100a0610760565b6000546040516001600160a01b0390911681526020016100b7565b6100a06100f1366004610f5c565b6107c6565b610109610104366004610f75565b610a21565b60405190151581526020016100b7565b6100a0610127366004610f97565b610a5d565b610134610b28565b6040516100b79190610fc7565b836016816040516101529190611025565b9081526040519081900360200190205460ff166101a75760405162461bcd60e51b815260206004820152600e60248201526d149bdbdb481b9bdd08199bdd5b9960921b60448201526064015b60405180910390fd5b838360ff82166008118015906101c15750601260ff831611155b6101fc5760405162461bcd60e51b815260206004820152600c60248201526b496e76616c69642074696d6560a01b604482015260640161019e565b600460ff821611156102445760405162461bcd60e51b81526020600482015260116024820152704475726174696f6e20746f6f206c6f6e6760781b604482015260640161019e565b60126102508284611057565b60ff1611156102935760405162461bcd60e51b815260206004820152600f60248201526e456e64696e6720746f6f206c61746560881b604482015260640161019e565b60006017886040516102a59190611025565b9081526040519081900360200190205460ff16905060006102c760088961107c565b905060006102d58883611057565b9050815b8160ff168160ff16101561037a5760028460ff16601481106102fd576102fd61109f565b018160ff16600a81106103125761031261109f565b602081049091015460ff601f9092166101000a9004166103685760405162461bcd60e51b8152602060048201526011602482015270426f6f6b696e6720636f6e666c6963747360781b604482015260640161019e565b80610372816110b5565b9150506102d9565b50815b8160ff168160ff1610156103ea57600060028560ff16601481106103a3576103a361109f565b018260ff16600a81106103b8576103b861109f565b602091828204019190066101000a81548160ff02191690831515021790555080806103e2906110b5565b91505061037d565b50600060186000336001600160a01b03166001600160a01b0316815260200190815260200160002080549050905060186000336001600160a01b03166001600160a01b031681526020019081526020016000206040518060e001604052808381526020018e81526020018d81526020018c60ff1681526020018b60ff1681526020018a151581526020016001151581525090806001815401808255809150506001900390600052602060002090600402016000909190919091506000820151816000015560208201518160010190805190602001906104ca929190610bfa565b50604082015180516104e6916002840191602090910190610bfa565b50606082015160039091018054608084015160a085015160c090950151151563010000000263ff0000001995151562010000029590951663ffff00001960ff9283166101000261ffff1990941692909516919091179190911792909216919091179190911790556040517ff2e795d4a33ae9a0d3282888375b8ae781ea4de1cbf101ac96150aa95ccff0b490600090a1505050505050505050505050565b336000908152601860209081526040808320805482518185028101850190935280835260609492939192909184015b8282101561075757838290600052602060002090600402016040518060e0016040529081600082015481526020016001820180546105f0906110d4565b80601f016020809104026020016040519081016040528092919081815260200182805461061c906110d4565b80156106695780601f1061063e57610100808354040283529160200191610669565b820191906000526020600020905b81548152906001019060200180831161064c57829003601f168201915b50505050508152602001600282018054610682906110d4565b80601f01602080910402602001604051908101604052809291908181526020018280546106ae906110d4565b80156106fb5780601f106106d0576101008083540402835291602001916106fb565b820191906000526020600020905b8154815290600101906020018083116106de57829003601f168201915b50505091835250506003919091015460ff808216602080850191909152610100830482166040850152620100008304821615156060850152630100000090920416151560809092019190915290825260019290920191016105b3565b50505050905090565b6000546001600160a01b031633146107ba5760405162461bcd60e51b815260206004820181905260248201527f4f776e61626c653a2063616c6c6572206973206e6f7420746865206f776e6572604482015260640161019e565b6107c46000610baa565b565b3360009081526018602052604090208054829081106107e7576107e761109f565b906000526020600020906004020160030160039054906101000a900460ff166108455760405162461bcd60e51b815260206004820152601060248201526f151a58dad95d081b9bdd08199bdd5b9960821b604482015260640161019e565b3360009081526018602052604081208054839081106108665761086661109f565b60009182526020808320600360049093020191909101805493151563010000000263ff0000001990941693909317909255338152601890915260408120805460179190849081106108b9576108b961109f565b90600052602060002090600402016002016040516108d7919061110e565b9081526040805160209281900383019020543360009081526018909352908220805460ff9092169350600891859081106109135761091361109f565b6000918252602090912060036004909202010154610934919060ff1661107c565b336000908152601860205260408120805492935090918590811061095a5761095a61109f565b600091825260209091206004909102016003015461098090610100900460ff1683611057565b9050815b8160ff168160ff1610156109f157600160028560ff16601481106109aa576109aa61109f565b018260ff16600a81106109bf576109bf61109f565b602091828204019190066101000a81548160ff02191690831515021790555080806109e9906110b5565b915050610984565b506040517ff2e795d4a33ae9a0d3282888375b8ae781ea4de1cbf101ac96150aa95ccff0b490600090a150505050565b60028260148110610a3157600080fd5b0181600a8110610a4057600080fd5b602081049091015460ff601f9092166101000a9004169150829050565b6000546001600160a01b03163314610ab75760405162461bcd60e51b815260206004820181905260248201527f4f776e61626c653a2063616c6c6572206973206e6f7420746865206f776e6572604482015260640161019e565b6001600160a01b038116610b1c5760405162461bcd60e51b815260206004820152602660248201527f4f776e61626c653a206e6577206f776e657220697320746865207a65726f206160448201526564647265737360d01b606482015260840161019e565b610b2581610baa565b50565b610b30610c7e565b604080516102808101909152600260146000835b8282101561075757604080516101408101918290529085840190600a90826000855b825461010083900a900460ff161515815260206001928301818104948501949093039092029101808411610b66579050505050505081526020019060010190610b44565b600080546001600160a01b038381166001600160a01b0319831681178455604051919092169283917f8be0079c531659141344cd1fd0a4f28419497f9722a3daafe3b4186f6b6457e09190a35050565b828054610c06906110d4565b90600052602060002090601f016020900481019282610c285760008555610c6e565b82601f10610c4157805160ff1916838001178555610c6e565b82800160010185558215610c6e579182015b82811115610c6e578251825591602001919060010190610c53565b50610c7a929150610cac565b5090565b6040518061028001604052806014905b610c96610cc1565b815260200190600190039081610c8e5790505090565b5b80821115610c7a5760008155600101610cad565b604051806101400160405280600a906020820280368337509192915050565b634e487b7160e01b600052604160045260246000fd5b600082601f830112610d0757600080fd5b813567ffffffffffffffff80821115610d2257610d22610ce0565b604051601f8301601f19908116603f01168101908282118183101715610d4a57610d4a610ce0565b81604052838152866020858801011115610d6357600080fd5b836020870160208301376000602085830101528094505050505092915050565b803560ff81168114610d9457600080fd5b919050565b600080600080600060a08688031215610db157600080fd5b853567ffffffffffffffff80821115610dc957600080fd5b610dd589838a01610cf6565b96506020880135915080821115610deb57600080fd5b50610df888828901610cf6565b945050610e0760408701610d83565b9250610e1560608701610d83565b915060808601358015158114610e2a57600080fd5b809150509295509295909350565b60005b83811015610e53578181015183820152602001610e3b565b83811115610e62576000848401525b50505050565b60008151808452610e80816020860160208601610e38565b601f01601f19169290920160200192915050565b60006020808301818452808551808352604092508286019150828160051b87010184880160005b83811015610f4e57603f19898403018552815160e08151855288820151818a870152610ee982870182610e68565b9150508782015185820389870152610f018282610e68565b60608481015160ff908116918901919091526080808601519091169088015260a08085015115159088015260c0938401511515939096019290925250509386019390860190600101610ebb565b509098975050505050505050565b600060208284031215610f6e57600080fd5b5035919050565b60008060408385031215610f8857600080fd5b50508035926020909101359150565b600060208284031215610fa957600080fd5b81356001600160a01b0381168114610fc057600080fd5b9392505050565b611900810181836000805b601481101561101b57825184835b600a8110156110015782511515825260209283019290910190600101610fe0565b505050610140939093019260209290920191600101610fd2565b5050505092915050565b60008251611037818460208701610e38565b9190910192915050565b634e487b7160e01b600052601160045260246000fd5b600060ff821660ff84168060ff0382111561107457611074611041565b019392505050565b600060ff821660ff84168082101561109657611096611041565b90039392505050565b634e487b7160e01b600052603260045260246000fd5b600060ff821660ff81036110cb576110cb611041565b60010192915050565b600181811c908216806110e857607f821691505b60208210810361110857634e487b7160e01b600052602260045260246000fd5b50919050565b600080835481600182811c91508083168061112a57607f831692505b6020808410820361114957634e487b7160e01b86526022600452602486fd5b81801561115d576001811461116e5761119b565b60ff1986168952848901965061119b565b60008a81526020902060005b868110156111935781548b82015290850190830161117a565b505084890196505b50949897505050505050505056fea2646970667358221220fb0e4dda4e25e28f8e0b78e4ebbe90af27fc7639a693e32f3cd8b31754d627ea64736f6c634300080e0033",
  "immutableReferences": {},
  "source": "// SPDX-License-Identifier: MIT\npragma solidity >=0.4.22 <0.9.0;\nimport \"@openzeppelin/contracts/access/Ownable.sol\";\n\ncontract HelloWorld is Ownable {\n    string[] private rooms = [\n        \"C01\",\n        \"C02\",\n        \"C03\",\n        \"C04\",\n        \"C05\",\n        \"C06\",\n        \"C07\",\n        \"C08\",\n        \"C09\",\n        \"C10\",\n        \"P01\",\n        \"P02\",\n        \"P03\",\n        \"P04\",\n        \"P05\",\n        \"P06\",\n        \"P07\",\n        \"P08\",\n        \"P09\",\n        \"P10\"\n    ];\n\n    uint8 private constant NUM_OF_ROOMS = 20;\n    uint8 private constant OPEN_AT = 8;\n    uint8 private constant CLOSE_AT = 18;\n    uint8 private constant MAX_DURATION = 4;\n    uint8 private constant HOURS_DAILY = CLOSE_AT - OPEN_AT;\n\n    bool[HOURS_DAILY][NUM_OF_ROOMS] public slots;\n    mapping(string => bool) isValidRoom;\n    mapping(string => uint8) roomToSlotsRow;\n\n    struct Ticket {\n        uint256 id;\n        string title;\n        string room;\n        uint8 from;\n        uint8 duration;\n        bool isEncrypted;\n        bool isActive;\n    }\n    // Ticket[] public tickets;\n    // mapping(address => uint256[]) userToTicketIds;\n    mapping(address => Ticket[]) userToTickets;\n\n    event Updated();\n\n    constructor() {\n        // initialise slots - true: available, fale: filled\n        for (uint8 row = 0; row < NUM_OF_ROOMS; row++) {\n            for (uint8 col = 0; col < HOURS_DAILY; col++) {\n                slots[row][col] = true;\n            }\n            isValidRoom[rooms[row]] = true;\n            roomToSlotsRow[rooms[row]] = row;\n        }\n    }\n\n    function getSlots()\n        external\n        view\n        returns (bool[HOURS_DAILY][NUM_OF_ROOMS] memory)\n    {\n        return slots;\n    }\n\n    modifier validRoom(string memory room) {\n        require(isValidRoom[room], \"Room not found\");\n        _;\n    }\n\n    modifier validTime(uint8 from, uint8 duration) {\n        require(OPEN_AT <= from && from <= CLOSE_AT, \"Invalid time\");\n        require(duration <= MAX_DURATION, \"Duration too long\");\n        require(from + duration <= CLOSE_AT, \"Ending too late\");\n        _;\n    }\n\n    function book(\n        string memory title,\n        string memory room,\n        uint8 from,\n        uint8 duration,\n        bool isEncrypted\n    ) external validRoom(room) validTime(from, duration) {\n        uint8 row = roomToSlotsRow[room];\n        uint8 fromCol = from - OPEN_AT;\n        uint8 toCol = fromCol + duration;\n\n        // make sure if there's no event conflict\n        for (uint8 col = fromCol; col < toCol; col++) {\n            require(slots[row][col], \"Booking conflicts\");\n        }\n\n        // update slots availability\n        for (uint8 col = fromCol; col < toCol; col++) {\n            slots[row][col] = false;\n        }\n\n        // create a new ticket\n        uint256 id = userToTickets[msg.sender].length;\n        userToTickets[msg.sender].push(\n            Ticket(id, title, room, from, duration, isEncrypted, true)\n        );\n\n        // emit event\n        emit Updated();\n    }\n\n    function getTickets() external view returns (Ticket[] memory) {\n        return userToTickets[msg.sender];\n    }\n\n    function removeTicket(uint256 id) external {\n        require(userToTickets[msg.sender][id].isActive, \"Ticket not found\");\n\n        userToTickets[msg.sender][id].isActive = false;\n        uint8 row = roomToSlotsRow[userToTickets[msg.sender][id].room];\n        uint8 fromCol = userToTickets[msg.sender][id].from - OPEN_AT;\n        uint8 toCol = fromCol + userToTickets[msg.sender][id].duration;\n\n        // update slots availability\n        for (uint8 col = fromCol; col < toCol; col++) {\n            slots[row][col] = true;\n        }\n\n        emit Updated();\n    }\n}\n",
  "sourcePath": "/Users/mitsuki/Dev/WEB3/playground2/truffle/contracts/HelloWorld.sol",
  "compiler": {
    "name": "solc",
    "version": "0.8.14+commit.80d49f37.Emscripten.clang"
  },
  "schemaVersion": "3.4.7",
  "updatedAt": "2022-06-25T07:14:09.424Z",
  "networkType": "ethereum",
  "devdoc": {
    "kind": "dev",
    "methods": {
      "owner()": {
        "details": "Returns the address of the current owner."
      },
      "renounceOwnership()": {
        "details": "Leaves the contract without owner. It will not be possible to call `onlyOwner` functions anymore. Can only be called by the current owner. NOTE: Renouncing ownership will leave the contract without an owner, thereby removing any functionality that is only available to the owner."
      },
      "transferOwnership(address)": {
        "details": "Transfers ownership of the contract to a new account (`newOwner`). Can only be called by the current owner."
      }
    },
    "version": 1
  },
  "userdoc": {
    "kind": "user",
    "methods": {},
    "version": 1
  }
}